:0600000002002E0205C6FD
:03000B000205D714
:0100130032BA
:03001B000205EEED
:0100230032AA
:03002B0002060EBC
:10007400020077020082C2A4C2B57582002212086F
:10008400211200FA30B211E527B404030204AD30A2
:10009400A60302009F0200D0020B4C1202D3120BE3
:1000A400F61203B5120E0BE510B5120280ED85129F
:1000B4001012072312063E120E78120CA875820045
:1000C4001204CA2000D5D2A9D28C80CF1202D31236
:1000D400022D1203B5120E0BE510B5120280ED8548
:1000E400121012072312063E120E78120CA8758203
:1000F400001204CA80D612054D85198B85188DC24D
:100104008E438910D2BBC2AB30A612E52990112EC2
:1001140093F531E527B4030D7532018008E5317597
:10012400F00AA4F531758A9C758C9C438902D2A986
:10013400D28C75CC1875CDFC75CA1875CBFCD2ADB4
:10014400D2CAD288C289D2A8D2AFE5277004C20528
:100154008002D20530A608300505750F848003752A
:100164000F80D2B7E53275F005A4F532751C81E530
:100174002C6008E52C252CF52C8003752C01E52337
:10018400605BE52324F34055E52324F9404FE52340
:100194002523252390019C730201B10201B10201C0
:1001A400B30201B30201B30201B30201DF802EAA3C
:1001B400237B00EA24FEFAEB34FFFBCA25E0CA33B2
:1001C400FBEA2444F582EB3411F583E493FAA3E4C7
:1001D40093FB7850A60208A6038002D209E524B452
:1001E400011B74FD25264003752603E52824F050E1
:1001F4000375280FE52924F0500375290FE5259090
:10020400112E93F50B30050CE52890112E93F50A69
:10021400C200800AE52990112E93F50AD200850ABE
:1002240045E524B40202D20922300E2EE508702AD4
:10023400E5097026E50D6015E50DB40102800FE5B2
:100244000DB40202800BE50DB4040F800A220202F1
:100254005F7582000202910202CD22E524B40306F6
:10026400300A030202CDD2B5200508853308851172
:10027400098013E51C30E3088533088511098006DD
:1002840075087D851109750F81750D0222AA8230CA
:100294000528BA0105751C818020E50FB404057595
:1002A4001C818016E51C54066008E51C251C24806E
:1002B400F51CE51C30E003751C82C2B58534088545
:0F02C4001109750F80750D0422C20E750D0022F1
:0E004100750C00750D00C200C201C202C203A0
:1002D300100C02801874C0250C40087440250CF5DE
:1002E3000C8003750C40D20DC20F120543200E1370
:1002F300E50C24C0500DE5446006300306020307F5
:100303000203072230A62F200106E51C54186006BD
:10031300D200C201D202E527B403028012200016E4
:10032300E508700AE50D700675087D750D08223025
:100333000004750C0022D20ED2A9D28CE50C24C085
:10034300F50CC203E511600874012545F5438003EC
:10035300854543D210E52C252DF54830A615D28EC0
:10036300D2ABD2B5750F80750D10750800750900F5
:10037300C20022E527B40302802174FD252440072F
:10038300D28ED2ABD2A422100A02800302025F20D3
:100393000702D20AD28ED2ABD2A422D28ED2AB2201
:1003A300004387010022C28800004387020000D275
:0203B30088229E
:02004F00C204E9
:1003B500E50F70012220050122E50FB4010620B7E3
:1003C50003750E1EE50FB4020630B703750E1EE564
:1003D5000FB4030630B703750F84E50FB404082086
:1003E500B705C20085320EE50E703DE50FB4010379
:1003F500750F82E50FB4021B750F8330A608751CB7
:1004050081120C4F800DE527B403057508018003A3
:1004150075087DE50FB4041030A607D200750F806E
:100425008006758201120291E50F30E739630F806E
:10043500E50F24FB4030E50F250F250F900445738C
:1004450002045402045702045D020463020466D2E6
:10045500B322C2B3750E1E22C2B3750E1E22C2B3DD
:1004650022C2B385320E22E52724FE503A20B23748
:1004750074EC25145031200516750F80E528901170
:100485002E93F50A850A45751C81D205020543752B
:100495000F00E52990112E93F50A850A45751C90E4
:1004A500C205D20002054322C2B3750864E508708F
:1004B5000C75086430B704D2B48002C2B41203A329
:0504C50085121080E823
:090051007510007511007515FA17
:1004CA00AA82E515705B05147515FA741025145087
:1004DA00050513751400EA704812046C120C8BE5BA
:1004EA00306022E53075F03CA4FAABF0AC147D0024
:1004FA00C3EC9AED64808BF063F08095F04006853A
:10050A00198B85188D74FC25145016754400850ABC
:10051A0045E523B40602C209C208C2A9C28C758A7B
:10052A009C74F1251350061203A9120543E51470B1
:10053A0004E51360030203A3227513007514007502
:10054A0015FA22AA2D7B00754C0AE4F54D8A828B96
:10055A0083120EF7AA82AB83754C64E4F54D8A8246
:10056A008B83120EF7AA82AB83E52E600CE52E75FB
:10057A00F064A42AFAEB35F0FB74FFC39AFA74FF0D
:10058A009BFB8A178B16E52F252DFC7D00754CE801
:10059A00754D038C828D83120EF7AA82AB83E52EEA
:1005AA00600CE52E75F064A42AFAEB35F0FB74FFB3
:1005BA00C39AFA74FF9BFB8A198B182230100280A7
:1005CA000BC2A8C289852A47C20BD20C32C0E005E9
:1005DA0011E50E6002150EE5087006E509600215C0
:1005EA0009D0E032C2ABC28E30A607C2B5750F8100
:1005FA00800BC2A4853109750800750D0185178B1A
:10060A0085168D32C0E0C2CF0512751100E508606B
:10061A00021508E54760021547E54860081548E5F0
:10062A00487002C210E54360021543E515600215E1
:04063A0015D0E032C5
:02005A00D206CC
:10063E00E51B30E771631B80E51B24F9405FE51B6A
:10064E00251B251B9006567302066B0206750206C5
:10065E007D02068502068D0206950206A0D2B475AD
:10066E001D00751EFF8039751D19751EE1803175CF
:10067E001D0C751E368029751D03751E1180217582
:10068E001D07751E038019751D07751E037508322B
:10069E00800E751D0C751E367508648003751B80E3
:1006AE00E51D2510F51AE510B51A2C30B40EE51B14
:1006BE00600AC2B4E51D2510F51A8008D2B4E51EF5
:1006CE002510F51AE51BB405028005E51BB40607D7
:1006DE00E5087003751B8022AA82751B80120543E4
:1006EE00EA602A758200C0021204CAD00230B40A2F
:1006FE00E514B40205C2B412054320B40BE514B4DC
:10070E000206D2B41205431A85121080D3C20C759C
:10071E000C00020543E51C30E738631C80E51CB471
:10072E000102801CE51CB402028027E51CB4040201
:10073E008020E51CB40802800CE51CB41011800A60
:10074E00751B84800D751B838008751B8280037555
:10075E001B8030A621E51C30E01CA200B3E433FA66
:10076E00E4A20633FBB5020EA20092063000047519
:07077E001B8422751B812280
:06005C00752D00752E0059
:10078500C002C003C004AA827B2AEA24ED500302FA
:100795000810EA240983C0E0EA241683C0E0221089
:1007A500CACED2D6DADEE2E6EAEEF2F6FAFE0206C4
:1007B5000A0E0807070707070707070707070707B9
:1007C50007080808087B2380427B24803E7B258020
:1007D5003A7B2680367B2780327B28802E7B2980BA
:1007E5002A7B2A80267B2B80227B2C801E7B2D80DA
:1007F5001A7B2E80167B2F80127B30800E7B3180FA
:100805000A7B3280067B3380027B347A007C408B06
:10081500828A838CF0D004D003D002227A12EA7047
:100825000122EA2AFB9010F593CBA393FC8A82124E
:10083500078585823685833785F03874012BF8E482
:100845003CF974022BF539E43CF53A8B828C831222
:100855000B35AD8288828983120B35AE828539824C
:10086500853A83120B35AF82EDB50604740180011C
:10087500E4F53BE53B602DEEB507298536828537E6
:10088500838538F0ED120EDEBDFF45C002C003C002
:1008950004C000C0011208D9D001D000D004D00393
:1008A500D00280A7EEB507098E3E8B828C83120B92
:1008B50005EDB507098D3E88828983120B05E53B59
:1008C50060898D3E853982853A83120B0502085071
:1008D5001A0208237A12EA60548A82120785AB82CB
:1008E500AC83ADF020A608EA9010CF93FE8006EA0F
:1008F5009010E293FEEA2AFF9010F593CFA393F8A8
:100905008E3E8F828883120B058F8288830FBF00EE
:1009150001088E3E120B058E3E8F828883120B05D1
:100925008B828C838DF0EE120EDE1A80A9753E0344
:10093500900008120B05753E04900013120B057507
:100945003E14900014120B05753E02900015120B13
:1009550005753E0090001D120B05753E0890001EA2
:10096500120B05A2A6B3E433F53E90001F120B054A
:10097500751B8022A882E50C7003020A20750C0005
:1009850086020AA602EA24ED50077600751B8680CA
:1009950003751B85E626FA9010F593CAA393FBC051
:1009A50000784E8601D0007B008A828B83120B353E
:1009B500E582F78602BA0C06870274012AF78602D9
:1009C500BA0E06870274012AF78602BA0106870263
:1009D50074012AF78602BA0205E7700277048602D7
:1009E500BA0A06870274012AF78602BA0506870243
:1009F50074012AF78602BA11098702EA0303543FF4
:100A0500FAF78602BA06068702EA24FDF78602BAD5
:100A150007068702EA24FDF7120543E514B40C0C1A
:100A2500E66006753F02020543753F0022E582FA3E
:100A350090111B93FAE50C6021794F870086030B13
:100A4500A603750C00C3EA9B500A7600751B861237
:100A550005438006751B85120543E514B40C117911
:100A65004F8700E66004753F0422751B86753F00BD
:100A750022AA82AB3DEA2AFC9010F593CCA393FD04
:100A8500BA0C011BBA0E011BBA01011BBA0205BB48
:100A950004027B00BA0A011BBA05011BBA1105EB5A
:100AA5002B25E0FBBA06030B0B0BBA07030B0B0B4D
:100AB500C2AF8B3E8C828D83120B050CBC00010DE1
:100AC5008B3E8C828D83120B050CBC00010D8B3E79
:100AD5008C828D83120B058C828D83120B351CBC89
:100AE500FF011D8C828D83120B351CBCFF011D8CF3
:100AF500828D83120B35D2AFC20C750C00020543F3
:100B0500C002C003AA82AB83439608439610E53E14
:100B1500F020AF07120B25E58270F9D003D0022231
:100B2500E59620E1047582012253967775820022AD
:100B3500C002C003AA82AB83439608E0FA5396F736
:100B45008A82D003D00222754000754100754200AB
:100B5500C2B420B2137582011204CAE514B4280385
:100B65001208D985121080EA120543753F00751BDE
:100B750085C209C208752A327582011204CA120E8D
:100B85000B100C028006750C01120543E53F700E33
:100B9500F540E4F542F541E50C6003753F01E53F9D
:100BA500B4010A784E7641758240120979E53FB461
:100BB50002098541821206E6753F03E53FB4030A43
:100BC500784F7642854082120A32E53FB404128599
:100BD500423D854082120A767582021206E6753F0D
:100BE50000E510B51202808985121012063E020B2F
:010BF5007689
:1010CF00000000040301150D0505010A00020102CD
:1010DF0004381A000000040301150D050501110065
:1010EF000201010404010000300033003600390012
:1010FF003C003F004200450048004B004E005100AD
:10110F00540057005A005D0060006300000C04118A
:0F111F00100512111E0A15180A0A0419143E2889
:100BF600200E05E50D30E32BE5087027E509702387
:100C0600E50D6015E50DB40802800FE50DB4100280
:100C1600800BE50DB4200C800722020C60020C2A22
:100C2600020C4F222005088531088511098013E53D
:100C36001C30E308853108851109800675087D8515
:100C46001109750F80750D2022100E0280002005F7
:100C560002D200750800750D0022E50FB40402806B
:100C66001DE51C54066008E51C251C2480F51CE5C2
:100C76001C30E003751C82E51C30E302D200750CC3
:100C860000750D002230A619E527B4011420B21113
:100C960020020E74FE25145008D201750C40020580
:020CA6004322E7
:06006200C207C208C2093A
:100CA800200306E5437002D203200D0122200F0124
:100CB80022C3E54495265003020D2CE523B406080B
:100CC800D209C20AD2078061C3E50B9549403DE5C8
:100CD8002324FE502C74EFC0E0740CC0E07850E67A
:100CE800C0E008E6C0E022E50C243F5003750CC0C4
:100CF800E511600874012545F543800C854543805E
:100D080007E523B40102D208D207801D850A45E50C
:100D180011600874012545F5438003854543C208E1
:100D2800C2078005850A45C207C20D2275F003E592
:100D3800498485F04675F003E5498425E0F545E5E5
:100D48004660020545C3E545950A5003850A457482
:100D580020250CF50C2274015549F546E549C313C5
:100D6800F545E54660020545C3E545950A50038506
:100D78000A457440250CF50C2275F005E549848573
:100D8800F04675F005E5498425E0F545E54660023D
:100D98000545C3E545950A5003850A45850C821229
:100DA8000FD6AA82AB83ACF0FDE4C0E0C0E074C00B
:100DB800C0E07442C0E08A828B838CF0ED120F147D
:100DC800AA82AB83ACF0FDE58124FCF5818A828B95
:100DD800838CF0ED120FE185820C2275F003E54952
:100DE8008485F04675F003E54984F545E5466002DB
:100DF8000545C3E545950A5003850A457480250CC9
:030E0800F50C22C4
:10112E00FFFFFFFFFAC8A78F7D6F645B534D4743E8
:0E113E003F3B38353200340D5E0D810DE30D60
:0C006800C211C20CC20DC20EC20FC210A9
:100E0B0020A869A2B2300B01B392113011317406D4
:100E1B0025494011E51160087401252AF547801B0F
:100E2B00852A478016E511600AE52B252A2401F552
:100E3B00478008E52B252A2401F547A2B2920BE542
:100E4B0047702930B21AC289D2A8300806744025DF
:100E5B000CF50CE524B402051009028000C2022235
:100E6B00754701300906750C8002054322300D3E93
:100E7B00200F3BD20FE5446014854B4A85104B8500
:100E8B004A1F854B82120EBA858249800985104B09
:100E9B0074FF2549F549E54924055006E52B252A1C
:100EAB00F547C3E54495265005300E02054422AAAA
:100EBB0082E51460047582FF22C3EA951F4007EA9E
:100ECB00C3951FFB800A74FFC3951FFBEA2B04FB22
:030EDB008B8222E5
:06003B00E478FFF6D8FD99
:100EDE0020F71030F6118883A88220F507F6A88334
:100EEE0075830022F280F7F022E582854CF0A4C5CE
:100EFE0082C0F0854DF0A4D0F025F0C583854CF06E
:100F0E00A42583F58322120FFC7900E583B58202B6
:100F1E00800D5003120FBCE583C3958212102AE593
:100F2E00D0C465D020E117EA2DFAEB3EFBEC3FFC76
:100F3E005009740112102AEC4480FC020F6DC3EAB2
:100F4E009DFAEB9EFBEC9FFC500FC3E499F9E49ADB
:100F5E00FAE49BFBE49CFCB2D112106D020F6DB94A
:100F6E008003EA13B34010EA2401FAE43BFBE43CAD
:100F7E00FC50047C800582BC000EBB000BBA00083E
:100F8E00E4F5F0F583F58222A2D1E582138CF0927E
:100F9E00F78B838A8222E4F583F58275F080F4A2C2
:100FAE00D11322E4F583F58275F0C0747F22E582B9
:100FBE00C583F582A2D133A2D592D11392D5ECCFAF
:080FCE00FCEBCEFBEACDFA2298
:0D002E0075815112007AE5826003020077AF
:100FD600E4AC82FBFAF97486020FF27F861210984F
:100FE600F58222FCABF0AA83A982749EC2D1F58257
:100FF60012106D020F6DAA82AB83A2F73392D160F5
:1010060002D2F7F582ACF0E58124F9F8E6FD08E6B0
:10101600FE0886F008E6A2F73392D56002D2F7F50D
:1010260083AFF0226040F82582500274FFF582E813
:1010360024F8501ECCCBCAF9E4CC24F85014CBCA01
:10104600F9E4CB24F8500BCAF9E4CA24F850037922
:10105600002224086010F8C3EC13FCEB13FBEA1320
:10106600FAE913F9D8F1227804EC700DC9CACBFC61
:10107600E58224F8F582D8F122782020E71115823E
:10108600C3E933F9EA33FAEB33FBEC33FCD8EC2251
:101096007F9E1210BD30D103020F8EC3EF95825092
:1010A6000974FFF5F0F583F58222790012102A897A
:1010B600828A838BF0EC22AA82AB83A2F73392D189
:0910C6006002D2F7F582ACF022C1
:00000001FF
